S01E00004A6F79537469636B4D656E7565537465756572756E672E737265631A
S11300000C942A000C9447000C9447000C9447006D
S11300100C9447000C9447000C9447000C94470040
S11300200C9447000C9447000C9447000C94470030
S11300300C9447000C9447000C9447000C94470020
S11300400C9447000C9447000C9447000C94470010
S11300500C94470011241FBECFE5D4E0DEBFCDBF12
S113006010E0A0E6B0E0E8E2FFE002C005900D92E7
S1130070A03BB107D9F720E0A0EBB0E001C01D928E
S1130080A93DB207E1F70E94ED020C9492070C948B
S113009000008AB3887F8ABBDA9A08950F931F936E
S11300A0CF93DF93CDB7DEB70DB71EB717B816B829
S11300B097B187709064892B87B986B1866086B9B9
S11300C0379A359880B78F7180BFCB01880F991FFD
S11300D02DB73EB7281B390B0FB6F8943EBF0FBEA1
S11300E02DBFEDB7FEB73196369A3699FECF61151E
S11300F0710599F020E030E080E090E0369A36997E
S1130100FECF44B155B141935193840F951F2F5F96
S11301103F4F6217730791F702C080E090E00E949E
S1130120A004CB010FB6F8941EBF0FBE0DBFDF9124
S1130130CF911F910F910895CF93DF93813059F49C
S113014063E070E082E00E944E0021E08538934035
S113015018F120E021C063E070E080E00E944E00CE
S1130160EC0163E070E081E00E944E00873C910561
S113017060F0C53223E0D20750F48E31934048F446
S1130180CE3CD10540F020E007C021E005C022E0CC
S113019003C023E001C024E0822FDF91CF910895B2
S11301A0EF92FF920F931F93CF93DF930E94FA0372
S11301B0E091B700F0E0E455FF4F8081882309F413
S11301C07DC0E12CF12CCDE9D0E006E910E06E2DE4
S11301D080E00E941C048091B60090E08E159F057B
S11301E091F58091B500813071F52091B70030E030
S11301F0A901440F551FFA01E854FF4FEE0DFF1DEE
S113020080811F928F93C701880F991F880F991FB0
S11302108E0D9F1D220F331F220F331F220F331FFA
S1130220240F351F820F931F805A9F4F9F938F93E4
S11302301F930F930E94B4040F900F900F900F9090
S11302400F900F902DC02091B70030E0A901440F0A
S1130250551FFA01E854FF4FEE0DFF1D80811F92D8
S11302608F93C701880F991F880F991F8E0D9F1DAB
S1130270220F331F220F331F220F331F240F351F6A
S1130280820F931F805A9F4F9F938F93DF93CF9337
S11302900E94B4040F900F900F900F900F900F9046
S11302A08FEFE81AF80AE091B700F0E0E455FF4F49
S11302B0808190E0E816F90608F489CFDF91CF91A8
S11302C01F910F91FF90EF900895CF93DF9381E0FA
S11302D00E949C00D82F80E00E949C00C82FD1303F
S11302E009F411C18091B400811135C08091B50029
S11302F08111E9C08091B3008130E9F08091B200AE
S11303008130C9F0C23009F0DAC08091B70083307F
S1130310C0F491E09093B3008F5F8093B70011C055
S11303208091B700882349F091E09093B200815006
S11303308093B70002C0C23021F01092B300C430E1
S113034011F01092B2000E94D000DD2321F0D1C040
S1130350D13009F4EAC08091B400813009F0B7C00B
S11303608091B500811108C081E08093B50010929E
S1130370B3001092B2000CC01092B5001092B600F7
S11303801092B3001092B2001092B1001092B0001B
S11303901092B4009CC08091B100813041F18091F1
S11303A0B000813021F1C13009F096C08091B600CF
S11303B0882329F191E09093B10081508093B60095
S11303C01EC02091B600422F50E0E091B700F0E04B
S11303D0E455FF4F808190E001974817590754F482
S11303E081E08093B0002F5F2093B60003C0C1303A
S11303F009F48EC01092B100C33009F471C0109298
S1130400B0008091B300813009F44EC08091B200F5
S1130410813009F449C0C23009F067C04091B70087
S113042050E02091B60030E0CA01880F991FFC010A
S1130430E854FF4FE20FF31F6081A62FB0E08C5504
S11304409F4FFC01E20FF31F808190E00197A817F2
S1130450B90784F581E08093B300440F551F4854D5
S11304605F4FFA01E20FF31F6F5F608323C0809137
S1130470B70090E02091B60030E0FC01EE0FFF1FC2
S1130480E854FF4FE20FF31F4081442379F051E019
S11304905093B200880F991F88549F4FFC01E20FBC
S11304A0F31F4150408302C0C23021F01092B300C8
S11304B0C43011F01092B2000E94D00036C0C43093
S11304C009F03BCF2DCFDD2309F445CF49CF8091EF
S11304D0B500813051F55FCFC33009F08BCF71CFB8
S11304E08091B3008130E1F4E1CFC43009F4BFCF8F
S11304F0DDCF8091B400882309F432CF29CF81E085
S11305008093B40012C08091B400811121CFF7CF41
S11305101092B0008091B300813009F077CFC6CF3C
S11305208091B200813011F6BFCFDF91CF91089551
S1130530E82FF0E0EE0FFF1FE854FF4FE60FF11D28
S113054080810895E82FF0E0E455FF4F80810895FD
S1130550EF92FF920F931F93CF93DF93E12CF12C33
S113056001E010E030C06C2F8E2D0E9498028111A2
S11305700DC095B398010F2C02C0220F331F0A94AB
S1130580E2F7822F8095892385BB10C06C2F8E2DB6
S11305900E949802813051F425B3C8010F2C02C087
S11305A0880F991F0A94E2F7822B85BBF394219656
S11305B08E2D0E94A20290E0C817D907A4F2E394FA
S11305C084E0E81619F0C0E0D0E0F2CFDF91CF91DB
S11305D01F910F91FF90EF9008950E9405040E94CF
S11305E049008FEF84BB15BA0E9465010E94A802DE
S11305F08FE59AEE0197F1F700C00000F5CF9BB3A9
S11306009F7A9BBB98B39B7198BB84FDC29A85FD6E
S1130610C59A86FDC69A88230CF4C79A6111DE9A9E
S1130620DC9A94E09A95F1F7DC9894E09A95F1F7C6
S11306309BB39F7A9BBB98B39B7198BB80FDC29A76
S113064081FDC59A82FDC69A83FDC79A6111DE9A1F
S1130650DC9A84E08A95F1F7DC9894E09A95F1F7B6
S1130660089591E0883008F090E0992379F091E0C2
S1130670623008F090E0992349F06111805C60E0F9
S113068080680E94FF0288EC8A95F1F7089560E083
S113069080E00E9431038FE697E10197F1F700C0F3
S11306A0000008952FEB84ED91E0215080409040AC
S11306B0E1F700C000008AB380658ABB87B3846E0B
S11306C087BB88B38B7188BB8BB38F7A8BBB88B3A2
S11306D0846288BBDC9A24E02A95F1F7DC9880EAEE
S11306E08A95F1F760E088E20E94FF0290EA9A9509
S11306F0F1F760E088E20E94FF0220EA2A95F1F710
S113070060E08CE00E94FF0280EA8A95F1F760E0E5
S113071081E00E94FF028FE697E10197F1F700C0A4
S1130720000060E086E00E94FF028FE697E10197F7
S1130730F1F700C000000E944703089561E00E94A1
S1130740FF0288EC8A95F1F70895823070F4880FDF
S1130750880F880F28E0280F90E2E82FF0E0ED538F
S1130760FF4F90838F5F2813F8CF08950F931F9343
S1130770CF93DF9360E080E00E943103C3ECD0E0CC
S11307800BEC10E089910E949E03C017D107D1F7AA
S113079061E080E00E943103C8E0EC2FF0E0ED530B
S11307A0FF4F80810E949E03CF5FC031B1F76091FB
S11307B0C0008091C1000E943103DF91CF911F914D
S11307C00F910895E3ECF0E02BEC30E08085819309
S11307D0E217F307D9F781E00E94A5030E94B6034C
S11307E008950E9447031092C1001092C000109215
S11307F0C200089580E00E94A50381E00E94A50341
S11308000E94B6030E94F10308950E94520380E0FF
S11308100E94A50381E00E94A5031092C1001092DA
S1130820C0001092C2000E94FA0388E890E09093FE
S1130830D6008093D5000895CF93DF93883088F451
S1130840623078F4D62FC82F0E943103D093C000B1
S1130850C093C1008D2F880F880F880F8C0F809351
S1130860C200DF91CF910895CF93C82F8A3089F0C9
S11308708D3091F58091C2009091C100891B8093C5
S1130880C2001092C1006091C00080E00E94310358
S113089050C08091C0008F5F8093C000823058F0B8
S11308A00E94E2031092C10081E08093C00088E0BE
S11308B08093C2000AC08091C200885F9091C100F9
S11308C0891B8093C2001092C1006091C000809186
S11308D0C1000E9431032DC08091C1008830B8F05E
S11308E08091C0008F5F8093C0001092C10082305D
S11308F040F00E94E20381E08093C00088E080938E
S1130900C2006091C0008091C1000E9431038C2F0D
S11309100E949E038091C200E82FF0E0ED53FF4F48
S1130920C0839091C1009F5F9093C1008F5F8093BB
S1130930C200CF9108950E94340480E090E00895AD
S1130940AA1BBB1B51E107C0AA1FBB1FA617B707F1
S113095010F0A61BB70B881F991F5A95A9F780950D
S11309609095BC01CD010895A0E0B0E0EAEBF4E07D
S11309700C946B07AE014B5F5F4FFA01619171916B
S1130980AF018091D5009091D6000E94CA04E2E0A4
S11309900C948707ABE0B0E0E0EDF4E00C945B0767
S11309A06C017B018A01FC0117821682838181FF1D
S11309B0CCC1CE0101963C01F6019381F70193FD70
S11309C0859193FF81917F01882309F4BAC185320F
S11309D039F493FD859193FF81917F01853229F448
S11309E0B60190E00E94C106E7CF912C212C312C56
S11309F0FFE1F315D8F08B3279F038F4803279F0D6
S1130A008332A1F4232D20611DC08D3261F0803327
S1130A1069F4232D216016C0832D8260382EE32DC6
S1130A20E4603E2E2AC0F32DF8601DC037FC2DC0B3
S1130A3020ED280F2A3040F08E32B9F436FC81C103
S1130A40232D2064322E19C036FE06C08AE0989EFB
S1130A50200D1124922E11C0EAE02E9E200D1124A7
S1130A60222EF32DF0623F2E08C08C3621F4832D04
S1130A708068382E02C0883641F4F70193FD8591D1
S1130A8093FF81917F018111B3CF982F9F7D95545E
S1130A90933028F40C5F1F4F9FE399830DC0833676
S1130AA031F0833771F0833509F059C021C0F80162
S1130AB0808189830E5F1F4F88248394912C530176
S1130AC013C02801F2E04F0E511CF801A080B18040
S1130AD036FE03C0692D70E002C06FEF7FEFC501E1
S1130AE00E94B6064C018201F32DFF773F2E16C0FB
S1130AF0280122E0420E511CF801A080B18036FE8C
S1130B0003C0692D70E002C06FEF7FEFC5010E9442
S1130B10AB064C01F32DF0683F2E820133FC1BC061
S1130B20822D90E088169906B0F4B60180E290E038
S1130B300E94C1062A94F4CFF50137FC859137FE53
S1130B4081915F01B60190E00E94C10621102A94B0
S1130B5021E0821A91088114910471F7E8C0843667
S1130B6011F0893641F5F80137FE07C060817181C3
S1130B70828193810C5F1F4F08C060817181072EB1
S1130B80000C880B990B0E5F1F4FF32DFF763F2E41
S1130B9097FF09C090958095709561957F4F8F4F11
S1130BA09F4FF0683F2E2AE030E0A3010E94FD062B
S1130BB0882E861845C0853731F4232D2F7EB22E1A
S1130BC02AE030E025C0932D997FB92E8F36C1F0ED
S1130BD018F4883579F0B5C0803719F0883721F0DA
S1130BE0B0C0E92FE061BE2EB4FE0DC0FB2DF46051
S1130BF0BF2E09C034FE0AC0292F2660B22E06C0BB
S1130C0028E030E005C020E130E002C020E132E01D
S1130C10F801B7FE07C060817181828193810C5F06
S1130C201F4F06C06081718180E090E00E5F1F4F0E
S1130C30A3010E94FD06882E8618FB2DFF773F2E08
S1130C4036FE0DC0232D2E7FA22E891458F434FEB7
S1130C500BC032FC09C0832D8E7EA82E05C0B82C93
S1130C60A32C03C0B82C01C0B92CA4FE0FC0FE01F4
S1130C70E80DF11D8081803321F49A2D997EA92EEF
S1130C8009C0A2FE06C0B394B39404C08A2D86782A
S1130C9009F0B394A3FC11C0A0FE06C0B21488F4FA
S1130CA0280C922C9B180EC0B21460F4B60180E29A
S1130CB090E00E94C106B394F7CFB21418F42B1835
S1130CC002C0982C212CA4FE10C0B60180E390E051
S1130CD00E94C106A2FE17C0A1FC03C088E790E0F1
S1130CE002C088E590E0B6010CC08A2D867859F0E0
S1130CF0A1FE02C08BE201C080E2A7FC8DE2B60136
S1130D0090E00E94C106891438F4B60180E390E0B3
S1130D100E94C1069A94F7CF8A94F301E80DF11D5D
S1130D208081B60190E00E94C1068110F5CF222097
S1130D3009F442CEB60180E290E00E94C1062A94F2
S1130D40F6CFF6018681978102C08FEF9FEF2B9635
S1130D50E2E10C947707FC010590615070400110AA
S1130D60D8F7809590958E0F9F1F0895FC016150D0
S1130D70704001900110D8F7809590958E0F9F1FB9
S1130D8008950F931F93CF93DF93FB01238121FDDC
S1130D9003C08FEF9FEF2CC022FF16C046815781FE
S1130DA0248135814217530744F4A081B1819D0108
S1130DB02F5F3F4F318320838C93268137812F5FB0
S1130DC03F4F3783268314C08B01EC01FB01008461
S1130DD0F185E02D0995892BE1F6D80116968D91C0
S1130DE09C911797019617969C938E931697CE0114
S1130DF0DF91CF911F910F910895FA01AA2728300E
S1130E0051F1203181F1E8946F936E7F6E5F7F4FD3
S1130E108F4F9F4FAF4FB1E03ED0B4E03CD0670F4F
S1130E20781F891F9A1FA11D680F791F8A1F911DA2
S1130E30A11D6A0F711D811D911DA11D20D009F4F2
S1130E4068943F912AE0269F11243019305D319334
S1130E50DEF6CF010895462F4770405D4193B3E01D
S1130E600FD0C9F7F6CF462F4F70405D4A3318F0C4
S1130E70495D31FD4052419302D0A9F7EACFB4E075
S1130E80A6959795879577956795BA95C9F700972D
S1130E906105710508959B01AC010A2E06945795CE
S1130EA0479537952795BA95C9F7620F731F841F25
S1130EB0951FA01D08952F923F924F925F926F92BB
S1130EC07F928F929F92AF92BF92CF92DF92EF92D6
S1130ED0FF920F931F93CF93DF93CDB7DEB7CA1B57
S1130EE0DB0B0FB6F894DEBF0FBECDBF09942A8882
S1130EF0398848885F846E847D848C849B84AA842A
S1130F00B984C884DF80EE80FD800C811B81AA81B6
S1130F10B981CE0FD11D0FB6F894DEBF0FBECDBF81
S10B0F20ED010895F894FFCFE0
S1130F284C454430004C454431004C454432004C57
S1130F38454433004C454434004C454435004C4545
S1130F484436004C4544370000000002000000000D
S1130F589B040000000025732A253375002573209F
S1130F682533750002020202020202020202020290
S9030000FC
